:020000040000FA
:0400000010EF00F00D
:100008006B82F2A40AEF00F00CEF00F00EEF00F0A4
:1000180035EC0BF06B92110048EF0AF033EF05F066
:10002800B70E156E1F0E166E1F6A010E196E010EA1
:10003800D9EC0AF0000EC6EC0AF0A2EF05F056EC77
:100048000BF00009D8B42BEF00F02DEF00F0A2EF71
:1000580005F01F5015244F6E000E1620506E4FC02D
:10006800F6FF50C0F7FF0800F5500009D8B43FEF7D
:1000780000F041EF00F052EF00F01F5015244F6ED2
:10008800000E1620506E4FC0F6FF50C0F7FF080054
:10009800F55075EC0BF01F2AA2EF05F01F6A020E4F
:1000A800196EA2EF05F06BEC0BF0E806D8A45FEF31
:1000B80000F061EF00F0A2EF05F0000E446EC80EEC
:1000C800436E010E65EC09F0D60E156E1E0E166E07
:1000D8001F6A030E196EA2EF05F056EC0BF000092B
:1000E800D8B479EF00F07BEF00F0A2EF05F01F50D5
:1000F80015244F6E000E1620506E4FC0F6FF50C0EC
:10010800F7FF0800F5500009D8B48DEF00F08FEF25
:1001180000F09FEF00F01F5015244F6E000E1620C0
:10012800506E4FC0F6FF50C0F7FF0800F55075EC51
:100138000BF04FEF00F01F6A3A50EBEC0AF0040E98
:10014800196EA2EF05F03A50FDEC09F04550441045
:100158000BE1E80E425C030E4358D8A0B6EF00F05E
:10016800B8EF00F0A2EF05F0970E156E1E0E166E92
:100178001F6A050E196EA2EF05F056EC0BF0000988
:10018800D8B4C9EF00F0CBEF00F0A2EF05F01F5094
:1001980015244F6E000E1620506E4FC0F6FF50C04B
:1001A800F7FF0800F5500009D8B4DDEF00F0DFEFE5
:1001B80000F0EFEF00F01F5015244F6E000E1620D0
:1001C800506E4FC0F6FF50C0F7FF0800F55075ECB1
:1001D8000BF04FEF00F01F6A060E196EA00E156E99
:1001E8001F0E166EA2EF05F056EC0BF00009D8B4FE
:1001F80000EF01F002EF01F0A2EF05F01F50152407
:100208004F6E000E1620506E4FC0F6FF50C0F7FF1D
:100218000800F5500009D8B414EF01F016EF01F00A
:1002280026EF01F01F5015244F6E000E1620506E59
:100238004FC0F6FF50C0F7FF0800F55075EC0BF003
:100248004FEF00F01F6A070E196E3A50EBEC0AF0F8
:10025800010E87EC0BF0010E83EC0BF0010E8BEC1A
:100268000BF01E6AA2EF05F03A50FDEC09F045507C
:10027800441009E1600E425CEA0E4358D8B047EFDB
:1002880001F049EF01F064EF01F0030E1E604FEF3B
:1002980001F051EF01F064EF01F066EC0BF0E806B5
:1002A800D8A459EF01F05BEF01F0A2EF05F08FEC55
:1002B8000BF01B6E080E196E1F6A1D6AA2EF05F07F
:1002C800000E87EC0BF0010E7FEC0BF0000E8BECB0
:1002D8000BF0010EC6EC0AF0000ED9EC0AF0130E72
:1002E800156E1F0E166E1F6A0B0E196EA2EF05F023
:1002F800070E1F6082EF01F084EF01F098EF01F024
:100308001F50570FD96EDA6A1B501F24E16EE26A3C
:10031800DE50E618D8A493EF01F095EF01F04FEF07
:1003280000F01D2A4FEF00F0070E1D18D8A49FEF0C
:1003380001F0A1EF01F0B2EF01F0000E87EC0BF035
:10034800010E7FEC0BF0000E8BEC0BF0B70E156E68
:100358001E0E166E0F0E196EA2EF05F00A0E75EC42
:100368000BF0F50E156E1E0E166E090E196E1F6A2D
:100378001E2AA2EF05F056EC0BF00009D8B4C7EF1F
:1003880001F0C9EF01F0A2EF05F01F5015244F6EE0
:10039800000E1620506E4FC0F6FF50C0F7FF080041
:1003A800F5500009D8B4DBEF01F0DDEF01F0EDEF17
:1003B80001F01F5015244F6E000E1620506E4FC0CE
:1003C800F6FF50C0F7FF0800F55075EC0BF04FEF43
:1003D80000F03A50FDEC09F04550441009E1600E78
:1003E800425CEA0E4358D8B0FCEF01F0FEEF01F092
:1003F8000FEF02F0030E1E6004EF02F006EF02F0AA
:100408000FEF02F01F6A0A0E196EA00E156E1F0E6E
:10041800166EA2EF05F0000E87EC0BF0010E7FECD4
:100428000BF0000E8BEC0BF0010EC6EC0AF0000E80
:10043800D9EC0AF0130E156E1F0E166E77EF01F049
:1004480056EC0BF00009D8B42CEF02F02EEF02F0B6
:10045800A2EF05F01F5015244F6E000E1620506EA7
:100468004FC0F6FF50C0F7FF0800F5500009D8B498
:1004780040EF02F042EF02F052EF02F01F50152455
:100488004F6E000E1620506E4FC0F6FF50C0F7FF9B
:100498000800F55075EC0BF04FEF00F01F6A070EDF
:1004A800196EA2EF05F056EC0BF00009D8B45FEF17
:1004B80002F061EF02F0A2EF05F01F5015244F6E15
:1004C800000E1620506E4FC0F6FF50C0F7FF080010
:1004D800F5500009D8B473EF02F075EF02F085EF1C
:1004E80002F01F5015244F6E000E1620506E4FC09C
:1004F800F6FF50C0F7FF0800F55075EC0BF04FEF12
:1005080000F0270E446E100E436E000E65EC09F0E5
:100518001F6A0C0E196E860E156E1F0E166EA2EF50
:1005280005F056EC0BF00009D8B49DEF02F09FEFF0
:1005380002F0A2EF05F01F5015244F6E000E162092
:10054800506E4FC0F6FF50C0F7FF0800F550000985
:10055800D8B4B1EF02F0B3EF02F0C3EF02F01F50CE
:1005680015244F6E000E1620506E4FC0F6FF50C077
:10057800F7FF0800F55075EC0BF04FEF00F01F6A1D
:100588000D0E196E1A6AA2EF05F00EEC0BF0425030
:100598004310D8B4D2EF02F0D4EF02F0A2EF05F086
:1005A80091EC0BF0516E0D0E5118D8B4DEEF02F03D
:1005B800E0EF02F0FAEF02F00A0E5118D8B4E7EFB4
:1005C80002F0E9EF02F0FAEF02F0030E1A60EFEF23
:1005D80002F0F1EF02F0A2EF05F01A50010FD96E08
:1005E800DA6A51C0DFFF1A2AA2EF05F01A50010F8C
:1005F800D96EDA6ADF6A1F6A1D6A0E0E196EA2EFDB
:1006080005F0030E1F600BEF03F00DEF03F020EF72
:1006180003F01F505F0FD96EDA6A1F50010FE16EA9
:10062800E26ADE50E618D8A41CEF03F01EEF03F0D0
:100638004FEF00F095EF01F0030E1D18D8A427EF37
:1006480003F029EF03F02DEF03F0196A1F6AA2EFF8
:1006580005F00C0E196E1A6A860E156E1F0E166EB0
:100668001F6AA2EF05F056EC0BF00009D8B43FEF73
:1006780003F041EF03F0A2EF05F01F5015244F6E71
:10068800000E1620506E4FC0F6FF50C0F7FF08004E
:10069800F5500009D8B453EF03F055EF03F065EFB8
:1006A80003F01F5015244F6E000E1620506E4FC0D9
:1006B800F6FF50C0F7FF0800F55075EC0BF04FEF50
:1006C80000F03A50EBEC0AF0100E196EA2EF05F0AC
:1006D8003A50FDEC09F0455044100BE1E80E425C3D
:1006E800030E4358D8A07BEF03F07DEF03F0A2EF91
:1006F80005F0770E156E1E0E166E1F6A110E196E16
:10070800A2EF05F056EC0BF00009D8B48EEF03F019
:1007180090EF03F0A2EF05F01F5015244F6E000E66
:100728001620506E4FC0F6FF50C0F7FF0800F55076
:100738000009D8B4A2EF03F0A4EF03F0B4EF03F07C
:100748001F5015244F6E000E1620506E4FC0F6FF36
:1007580050C0F7FF0800F55075EC0BF04FEF00F0B4
:10076800000E446EC80E436E010E65EC09F0120EC1
:10077800196EA2EF05F070EC0BF00009D8B4C7EFC2
:1007880003F0C9EF03F0A2EF05F06A0E156E1F0E15
:10079800166E130E196E34EF03F056EC0BF00009C9
:1007A800D8B4D9EF03F0DBEF03F0A2EF05F01F5048
:1007B80015244F6E000E1620506E4FC0F6FF50C025
:1007C800F7FF0800F5500009D8B4EDEF03F0EFEF9C
:1007D80003F0FFEF03F01F5015244F6E000E162094
:1007E800506E4FC0F6FF50C0F7FF0800F55075EC8B
:1007F8000BF04FEF00F01F6A140E196EC6EF02F0EF
:100808000EEC0BF042504310D8B40DEF04F00FEF8C
:1008180004F0A2EF05F091EC0BF0526E0D0E521899
:10082800D8B419EF04F01BEF04F034EF04F00A0E0B
:100838005218D8B422EF04F024EF04F034EF04F097
:10084800030E1A602AEF04F02CEF04F0A2EF05F073
:100858001A50010FD96EDA6A52C0DFFFF7EF02F0C3
:100868001A50010FD96EDA6ADF6A1F6A1D6A150EFF
:10087800196EA2EF05F0030E1A18D8A446EF04F07B
:1008880048EF04F06CEF04F0590E0118D8A44FEFAC
:1008980004F051EF04F06CEF04F0650E0218D8A4D0
:1008A80058EF04F05AEF04F06CEF04F0730E0318DD
:1008B800D8A461EF04F063EF04F06CEF04F04E0E7F
:1008C800156E1F0E166E1F6A170E196EA2EF05F031
:1008D800020E1A18D8A473EF04F075EF04F08CEF29
:1008E80004F04E0E0118D8A47CEF04F07EEF04F05B
:1008F8008CEF04F06F0E0218D8A485EF04F087EF90
:1009080004F08CEF04F01F6A160E196EA2EF05F0C2
:100918006A0E156E1F0E166E1F6A130E196EA2EF61
:1009280005F0000E87EC0BF0010E7FEC0BF0000ECB
:100938008BEC0BF0010EC6EC0AF0000ED9EC0AF0B5
:10094800130E156E1F0E166E77EF01F056EC0BF0B6
:100958000009D8B4B2EF04F0B4EF04F0A2EF05F048
:100968001F5015244F6E000E1620506E4FC0F6FF14
:1009780050C0F7FF0800F5500009D8B4C6EF04F0DE
:10098800C8EF04F0D8EF04F01F5015244F6E000E86
:100998001620506E4FC0F6FF50C0F7FF0800F55004
:1009A80075EC0BF04FEF00F03A50EBEC0AF0000E4C
:1009B800446EC80E436E010E65EC09F0180E196EF0
:1009C800A2EF05F03A50FDEC09F0455044100BE158
:1009D800E80E425C030E4358D8A0F5EF04F0F7EF99
:1009E80004F0A2EF05F01F6A310E156E1F0E166E89
:1009F800190E196EA2EF05F056EC0BF00009D8B4E9
:100A080008EF05F00AEF05F0A2EF05F01F501524D6
:100A18004F6E000E1620506E4FC0F6FF50C0F7FF05
:100A28000800F5500009D8B41CEF05F01EEF05F0DA
:100A38002EEF05F01F5015244F6E000E1620506E35
:100A48004FC0F6FF50C0F7FF0800F55075EC0BF0EB
:100A58004FEF00F01F6A1A0E196EA2EF05F0195039
:100A6800000AD8B414EF00F0010AD8B423EF00F05C
:100A7800030AD8B457EF00F0010AD8B471EF00F0B8
:100A8800070AD8B4A7EF00F0010AD8B4C1EF00F004
:100A9800030AD8B4F8EF00F0010AD8B438EF01F02F
:100AA8000F0AD8B47CEF01F0010AD8B4BFEF01F007
:100AB800030AD8B424EF02F0010AD8B457EF02F0C1
:100AC800070AD8B495EF02F0010AD8B4C9EF02F0CA
:100AD800030AD8B405EF03F0010AD8B437EF03F0DE
:100AE8001F0AD8B46CEF03F0010AD8B486EF03F0FC
:100AF800030AD8B4BFEF03F0010AD8B4D1EF03F06A
:100B0800070AD8B404EF04F0010AD8B43FEF04F0A0
:100B1800030AD8B495EF04F0010AD8B4AAEF04F098
:100B28000F0AD8B4E6EF04F0010AD8B400EF05F0D4
:100B3800030AD8B4A2EF05F0A2EF05F01200255081
:100B4800D8A4A9EF05F0ABEF05F0ADEF05F034EF51
:100B580007F02604D8A4B3EF05F0B5EF05F015EFBC
:100B680007F06BEC0AF00009D8A4BDEF05F0BFEF61
:100B780005F015EF07F03C50FDEC09F04550441026
:100B88000BE1F40E425C010E4358D8A0CEEF05F0FD
:100B9800D0EF05F015EF07F0070E2460D6EF05F04B
:100BA800D8EF05F0E6EF05F02450630FD96EDA6A46
:100BB80028C0DFFF2450630FD96EDA6ADF5075EC66
:100BC8000BF0242A070E2418D8A4EDEF05F0EFEF58
:100BD80005F0F3EF05F06A6A010E236E246A266AAF
:100BE80015EF07F06BEC0AF00009D8A4FEEF05F04A
:100BF80000EF06F008EF06F02D6A8C9A8C8C8C8E2C
:100C0800010E226E34EF07F03D50EBEC0AF0030EB4
:100C1800226E34EF07F06BEC0AF00009D8A417EF46
:100C280006F019EF06F022EF06F0010E2D6E8C8A01
:100C38008C9C8C8E020E226E34EF07F03D50EBEC4C
:100C48000AF00BEF06F06BEC0AF00009D8A42FEFBE
:100C580006F031EF06F039EF06F0020E2D6E8C8AA1
:100C68008C8C8C9E226A34EF07F03D50EBEC0AF036
:100C78000BEF06F06BEC0AF00009D8A446EF06F07B
:100C880048EF06F04AEF06F036EF06F03D50FDEC6F
:100C980009F045504410431009E1090E425CD8A000
:100CA80058EF06F05AEF06F034EF07F081B05FEF27
:100CB80006F061EF06F064EF06F02C6A85EF06F0A7
:100CC80081B269EF06F06BEF06F06FEF06F0010EE8
:100CD8002C6E85EF06F081B474EF06F076EF06F01F
:100CE8007AEF06F0020E2C6E85EF06F081B67FEFE4
:100CF80006F081EF06F085EF06F0030E2C6E85EF07
:100D080006F02DC02BF0030E2C18D8A48EEF06F099
:100D180090EF06F0A5EF06F02B50D8B496EF06F04A
:100D280098EF06F0A1EF06F0020E2B18D8A49FEF5B
:100D380006F0A1EF06F0A5EF06F0060E226E34EFDE
:100D480007F03C50EBEC0AF02650D8A4AEEF06F0C2
:100D5800B0EF06F0B4EF06F0040E226E34EF07F0A1
:100D680029502B18D8A4BBEF06F0BDEF06F0CAEF48
:100D780006F02A502C18D8A4C4EF06F0C6EF06F0E7
:100D8800CAEF06F0A3EC09F0A1EF06F0050E226EFB
:100D980034EF07F02CC02AF02BC029F02CC02EF01D
:100DA8002BC02DF00DEC09F0010E266EA1EF06F018
:100DB800070E2460E2EF06F0E4EF06F0F2EF06F02B
:100DC8002450630FD96EDA6A28C0DFFF2450630FFE
:100DD800D96EDA6ADF5075EC0BF0242A070E241856
:100DE800D8A4F9EF06F0FBEF06F0FFEF06F06A6A09
:100DF800010E236E246A2CC02AF02BC029F02CC0C7
:100E08002EF02BC02DF0D6EF06F06BEC0AF000099F
:100E1800D8A411EF07F013EF07F034EF07F036EF1F
:100E280006F02250000AD8B4F6EF05F0010AD8B44B
:100E38000FEF06F0030AD8B427EF06F0010AD8B47A
:100E48003EEF06F0070AD8B4CEEF06F0010AD8B490
:100E5800DCEF06F0030AD8B409EF07F034EF07F027
:100E6800120045EC08F0B4EF07F03804D8A43FEFBF
:100E780007F041EF07F0C3EF07F0010E356E415060
:100E8800EBEC0AF0396AC3EF07F03704D8A44FEF48
:100E980007F051EF07F057EF07F0356A386A376AFD
:100EA800396AC3EF07F04150FDEC09F04550441092
:100EB8000BE1F40E425C010E4358D8A066EF07F030
:100EC80068EF07F0C3EF07F0000E446E640E436E40
:100ED800000E65EC09F04150EBEC0AF0392A680E77
:100EE800396479EF07F07BEF07F0C3EF07F0020EE4
:100EF800356E4150EBEC0AF046EF07F03704D8A402
:100F080088EF07F08AEF07F08CEF07F051EF07F052
:100F18004150FDEC09F045504410431009E1FA0E28
:100F2800425CD8A09AEF07F09CEF07F0C3EF07F0F8
:100F3800000E446E640E436E000E65EC09F04150DD
:100F4800EBEC0AF0392A1D0E3964ADEF07F0AFEF6C
:100F580007F0C3EF07F0356A386A396AC3EF07F05C
:100F68003550000AD8B439EF07F0010AD8B449EF70
:100F780007F0030AD8B482EF07F0C3EF07F01200B6
:100F880039EF08F08B943204D8A4CDEF07F0CFEFF7
:100F980007F044EF08F0306A2F6A3F50EBEC0AF094
:100FA8003E50EBEC0AF0010E316E44EF08F032507F
:100FB800D8A4E1EF07F0E3EF07F0E7EF07F0316AB5
:100FC8008B9444EF08F03F50FDEC09F04250431079
:100FD80044104510D8B4F3EF07F0F5EF07F015EF1C
:100FE80008F03F50EBEC0AF0302A090E3064FFEFAE
:100FF80007F001EF08F002EF08F0306A2F50305C7C
:10100800D8A009EF08F00DEF08F04F6A4F2A0EEF4D
:1010180008F04F6A4F464F468B504F18FB0B4F183E
:101028008B6E3E50FDEC09F045504410431009E129
:10103800140E425CD8A023EF08F025EF08F044EF27
:1010480008F03E50EBEC0AF00A0E2F602EEF08F085
:1010580030EF08F033EF08F02F2A44EF08F08B94B4
:101068002F6A326A316A44EF08F03150000AD8B466
:10107800C6EF07F0010AD8B4DBEF07F044EF08F039
:1010880012003650D8A44BEF08F04DEF08F050EF9F
:1010980008F08B96A9EF08F04050FDEC09F042C02B
:1010A80053F043C054F044C055F045C056F00550C5
:1010B800535C4F6E06505458506E07505558516E39
:1010C80008505658526E09504F5C0A5050580B50F1
:1010D80051580C505258D8A074EF08F076EF08F029
:1010E80090EF08F08BA67BEF08F07FEF08F04F6ACF
:1010F8004F2A80EF08F04F6A4F464F464F468B50B5
:101108004F18F70B4F188B6E53C005F054C006F0FC
:1011180055C007F056C008F00D50535C0E50545897
:101128000F50555810505658D8A09DEF08F09FEF13
:1011380008F0A9EF08F0366A8B96000E056E000ECF
:10114800066E000E076E000E086E1200FDEF08F026
:1011580081AAB1EF08F0B3EF08F0B6EF08F0206A03
:101168000CEF09F081BABBEF08F0BDEF08F00CEF07
:1011780009F0010E206E3B50EBEC0AF00CEF09F081
:1011880081BAC9EF08F0CBEF08F00CEF09F03B503B
:10119800FDEC09F045504410431009E1080E425C8B
:1011A800D8A0D9EF08F0DBEF08F00CEF09F0010E3A
:1011B800216E020E206E3B50EBEC0AF00CEF09F0AA
:1011C80081AAE9EF08F0EBEF08F00CEF09F03B50CB
:1011D800FDEC09F045504410431009E1080E425C4B
:1011E800D8A0F9EF08F0FBEF08F00CEF09F0B3EF27
:1011F80008F02050000AD8B4ACEF08F0010AD8B4BF
:10120800C4EF08F0030AD8B4E4EF08F00CEF09F0D3
:10121800120081B012EF09F014EF09F017EF09F08E
:101228002E6A38EF09F081B21CEF09F01EEF09F0C1
:1012380022EF09F0010E2E6E38EF09F081B427EF86
:1012480009F029EF09F02DEF09F0020E2E6E38EFA4
:1012580009F081B632EF09F034EF09F038EF09F000
:10126800030E2E6E38EF09F02E50020DF3CF42F028
:10127800F4CF43F02D50080D5F0EF324446E1E0E7C
:10128800F420456E42504424466E43504520476E34
:1012980046C0F6FF47C0F7FF0900F5CF17F00A0070
:1012A800F5CF18F0276A27501724426E000E182031
:1012B800436E42C0F6FF43C0F7FF0800F5CF28F0A1
:1012C8001200496E3650D8B46CEF09F06EEF09F091
:1012D80070EF09F0A2EF09F0010E366E8B96010E41
:1012E8004324456E000E4420466ED8904630486E22
:1012F8004530476E47C00DF048C00EF00F6A106ABF
:101308004950D8B48AEF09F08CEF09F092EF09F050
:10131800000E4B6E010E4A6E96EF09F0000E4B6EF2
:10132800020E4A6E4AC009F04BC00AF0000E0ABE0F
:10133800FF0E0B6E0C6E4050EBEC0AF012001750CB
:101348001810D8A4AAEF09F0ACEF09F0AEEF09F035
:10135800D1EF09F0272A27501724426E000E1820D3
:10136800436E42C0F6FF43C0F7FF0800F55000097E
:10137800D8A4C1EF09F0C3EF09F0C4EF09F0276A58
:1013880027501724426E000E1820436E42C0F6FF05
:1013980043C0F7FF0800F5CF28F01200446AE1EFD8
:1013A80009F0442A0A0E4418D8A4DDEF09F0DFEF4B
:1013B80009F0E1EF09F0FCEF09F04450050DF35096
:1013C800840FD96EDA6ADE04D8B4EDEF09F0EFEFD6
:1013D80009F0D5EF09F04450050DF350840FD96E8C
:1013E800DA6A010EDF6E4250D96EDA6A44C0DFFF56
:1013F80012004E6EF29E11C04AF012C04BF013C09C
:101408004CF014C04DF0F28E4E50050DF350800F85
:10141800D96EDA6ADECF46F0DECF47F0DECF48F08D
:10142800DECF49F046504A5C426E47504B58436EF7
:1014380048504C58446E49504D58456E12003CEF88
:101448000AF081A82AEF0AF02CEF0AF047EF0AF019
:10145800010E346E010E336E47EF0AF081B837EF94
:101468000AF039EF0AF047EF0AF0336A47EF0AF05B
:101478003350000AD8B425EF0AF0010AD8B432EF85
:101488000AF047EF0AF01200980EF66E160EF76E85
:10149800000EF86E00EE57F010EE14F00900F5CFCC
:1014A800EEFFE550E150FAE100EE80F0320EEE6A10
:1014B800E806FDE100EE01F0410EEE6AE806FDE106
:1014C8006B906B92000EF86E00018CEF0AF0010E23
:1014D800426E81A072EF0AF074EF0AF08AEF0AF008
:1014E80081A279EF0AF07BEF0AF08AEF0AF081A473
:1014F80080EF0AF082EF0AF08AEF0AF081A687EF00
:101508000AF089EF0AF08AEF0AF0426A42501200A4
:101518001CEC0BF0ACEC0AF0FDEC0AF093EC0BF0D1
:1015280060EC0BF029EC0BF041EC0BF07AEC0BF0D3
:10153800A3EC05F023EC0AF0AAEC08F0C4EC07F0E1
:1015480035EC07F012EC00F09CEF0AF010EF00F019
:10155800426A4250050DF350840FD96EDA6ADF6A89
:10156800422A090E4264BBEF0AF0BDEF0AF0ADEF64
:101578000AF0820ED56EFD0ED76E8F0ED66EF294DF
:10158800F28A1200436E4350D8A4CDEF0AF0D1EF8F
:101598000AF0426A422AD2EF0AF0426A42468C5066
:1015A8004218FD0B42188C6E1200436E4350D8A4AB
:1015B800E0EF0AF0E4EF0AF0426A422AE5EF0AF0A7
:1015C800426A8C504218FE0B42188C6E1200426E12
:1015D800F29E4250050DF350800FD96EDA6A11C0A1
:1015E800DEFF12C0DEFF13C0DEFF14C0DEFFF28E86
:1015F80012003D0E426ED2EC09F03C0E426ED2EC67
:1016080009F09386938493829380959E959C959AEE
:10161800F19E12009EBA13EF0BF017EF0BF0446A1D
:10162800442A18EF0BF0446A4450426E436A120091
:10163800949C948EAC98AC84AC8AAB8EAB88B886FC
:10164800010EB06E400EAF6E12003F0E426ED2EC2D
:1016580009F03E0E426ED2EC09F095909592949462
:101668001200FD0ED76E8F0ED66EF294010E112663
:10167800000E1222132214221200410E426ED2ECE6
:1016880009F0400E426ED2EC09F094968B96120047
:101698003033303859414E005965730044444D4D3C
:1016A8002D2D2D00ACB25BEF0BF05EEF0BF0010EB1
:1016B8005FEF0BF0000E1200938A3B0E426ED2ECE5
:1016C80009F0120023C042F0236A4250120034C0CD
:1016D80042F0346A4250120021C042F0216A42505E
:1016E8001200426E42C0ADFFAC8A12003A0E426E42
:1016F800D2EC09F01200426E42C037F01200426E7E
:1017080042C038F01200426E42C025F01200426E0C
:1017180042C032F01200630E1200AE5012009388DD
:021728001200AD
:101E5E0000FD1FE21FCC1FFB1FD81FE71FF11FF64F
:101E6E001FDD1FEC1FD21FF91F3E204C5342616E27
:101E7E006B202D20436C6F736520696E74657269DB
:101E8E006F7220646F6F720A003E204C5342616E77
:101E9E006B202D20436C6F736520657874657269B5
:101EAE006F7220646F6F720A003E204C5342616E57
:101EBE006B202D204F70656E20696E746572696F90
:101ECE007220646F6F720A003E204C5342616E6B3B
:101EDE00202D204F70656E206578746572696F7263
:101EEE0020646F6F720A003E204C5342616E6B206D
:101EFE002D205065726D697373696F6E2064656E07
:101F0E006965640A003E204C5342616E6B202D20A1
:101F1E00546869656620696E746572636570746570
:101F2E00640A003E204C5342616E6B202D20436CA0
:101F3E006F736520626F746820646F6F72730A002E
:101F4E003E204C5342616E6B202D204F70656E20EB
:101F5E00626F746820646F6F72730A003E204C5378
:101F6E0042616E6B202D2045786974205265717523
:101F7E0065737465643A20003E204C5342616E6B6B
:101F8E00202D2052657365742053797374656D3AF4
:101F9E0020003E204C5342616E6B202D20456E7406
:101FAE0065722050494E3A20003E204C5342616EDD
:101FBE006B202D204E657720446179210A00505107
:101FCE00525337005758595A390041424332004450
:101FDE004546330047484934004A4B4C35004D4E78
:101FEE004F3600545556380020300023002A003159
:021FFE000000E1
:020000040020DA
:08000000FFFFFFFFFFFFFFFF00
:020000040030CA
:0E000000FF02191EFF0181FF03C003E0034051
:00000001FF
